:100000000C9475010C949D010C949D010C949D0120
:100010000C949D010C949D010C949D010C949D01E8
:100020000C949D010C949D010C9452060C940405B3
:100030000C949D010C949D010C949D010C949D01C8
:100040000C949D010C949D010C949D010C949D01B8
:100050000C949D010C949D010C949D010C94B7018E
:100060000C949D010C949D010C949D010C949D0198
:100070000C949D010C949D010C949D010C949D0188
:100080000C949D010C949D010C949D010C949D0178
:100090000C949D010C949D010C949D010C949D0168
:1000A0000C949D010C949D010C949D01B402B70227
:1000B000AA02AE02D802D802D802BB02BF02C30213
:1000C000C902CD02D802D3020000000200080E00CF
:1000D00000030401000B000000000000000000000D
:1000E00000000000000004080201104080401020C1
:1000F00040804080080204018040201002011080EE
:100100001020404004040404040304050202020217
:1001100004030202020206060606060604040202A0
:10012000020400000000250028002B002E003100F2
:1001300000000000240027002A002D00300000C12C
:100140008081C1120100020200004041233680007C
:1001500001010200011201000200000040412336AB
:100160008000010102000118034100720064007563
:100170000069006E006F0020004C004C004300221C
:1001800003410072006400750069006E006F00207A
:10019000004C0065006F006E006100720064006F2B
:1001A000000403090400000000000000002A2B28BE
:1001B000000000000000000000000000000000003F
:1001C00000000000002C9EB4A0A1A2A434A6A7A504
:1001D000AE362D3738271E1F20212223242526B393
:1001E00033B62EB7B89F8485868788898A8B8C8D95
:1001F0008E8F909192939495969798999A9B9C9DA7
:100200002F3130A3AD350405060708090A0B0C0D84
:100210000E0F101112131415161718191A1B1C1D86
:10022000AFB1B0B5000904020001030000000921CC
:10023000010100012265000705840340000105015A
:100240000902A1010901A10085010509190129037C
:10025000150025019503750181029501750581033E
:1002600005010930093109381581257F7508950385
:100270008106C0C005010906A1018502050719E034
:1002800029E715002501750195088102950175087A
:100290008103950675081500256505071900296570
:1002A0008100C0080B0002020201000904000001E5
:1002B00002020000052400100105240101010424AC
:1002C0000206052406000107058103100040090409
:1002D0000100020A000000070502024000000705B5
:1002E000830240000000E707EB0811241FBECFEF98
:1002F000DAE0DEBFCDBF11E0A0E0B1E0EAE6F2E176
:1003000002C005900D92AA32B107D9F721E0AAE206
:10031000B1E001C01D92AB39B207E1F712E0CAEEBD
:10032000D2E004C02297FE010E942F09C63ED107E9
:10033000C9F70E9448030C942A090C94000061E05C
:100340008DE00C94D90261E08DE00E94120368EE0A
:1003500073E080E090E00E94240260E08DE00E9463
:10036000120368EE73E080E090E00C9424021F9288
:100370000F920FB60F9211242F933F938F939F9359
:10038000AF93BF9380912B0190912C01A0912D01EF
:10039000B0912E0130912A0123E0230F2D3720F454
:1003A0000196A11DB11D05C026E8230F0296A11DCF
:1003B000B11D20932A0180932B0190932C01A093CF
:1003C0002D01B0932E0180912F0190913001A091C9
:1003D0003101B09132010196A11DB11D80932F0111
:1003E00090933001A0933101B0933201BF91AF914E
:1003F0009F918F913F912F910F900FBE0F901F9063
:1004000018953FB7F89480912F0190913001A091F9
:100410003101B091320126B5A89B05C02F3F19F0DC
:100420000196A11DB11D3FBF6627782F892F9A2FF6
:10043000620F711D811D911D42E0660F771F881F9D
:10044000991F4A95D1F70895CF92DF92EF92FF92CC
:10045000CF93DF936B017C010E940102EB01C11479
:10046000D104E104F10479F00E9401026C1B7D0BC0
:10047000683E7340A0F381E0C81AD108E108F10892
:10048000C851DC4FECCFDF91CF91FF90EF90DF9020
:10049000CF900895789484B5826084BD84B58160DE
:1004A00084BD85B5826085BD85B5816085BDEEE67C
:1004B000F0E0808181608083E1E8F0E0108280815B
:1004C00082608083808181608083E0E8F0E08081C9
:1004D00081608083E1E9F0E08081826080838081B7
:1004E00081608083E0E9F0E0808181608083E1ECDD
:1004F000F0E080818460808380818260808380815D
:1005000081608083E3ECF0E0808181608083E0ECB7
:10051000F0E0808182608083E2ECF0E080818160A5
:100520008083EAE7F0E0808184608083808182605C
:10053000808380818160808380818068808308954A
:1005400090E0FC013197EE30F10590F5EA5AFF4F4B
:100550000C942D09809180008F7703C080918000DA
:100560008F7D80938000089584B58F7702C084B515
:100570008F7D84BD0895809190008F7707C0809112
:1005800090008F7D03C080919000877F80939000C2
:1005900008958091C0008F7703C08091C0008F7D47
:1005A0008093C00008958091C200877F8093C2002D
:1005B0000895CF93DF9390E0FC01EA51FF4F24911F
:1005C000FC01EC5FFE4F8491882349F190E0880F95
:1005D000991FFC01E05DFE4FA591B4918E5D9E4F89
:1005E000FC01C591D4919FB7611108C0F8948C911A
:1005F000209582238C93888182230AC0623051F433
:10060000F8948C91322F309583238C938881822BA0
:10061000888304C0F8948C91822B8C939FBFDF91C8
:10062000CF9108950F931F93CF93DF931F92CDB770
:10063000DEB7282F30E0F901E853FF4F8491F9012C
:10064000EA51FF4F1491F901EC5FFE4F0491002332
:10065000C9F0882321F069830E94A0026981E02FFC
:10066000F0E0EE0FFF1FEE5DFE4FA591B4919FB736
:10067000F8948C91611103C01095812301C0812BE6
:100680008C939FBF0F90DF91CF911F910F91089591
:100690000E944A0283E391E00E9434060E949F0177
:1006A000C0E0D0E00E94A3012097E1F30E94000087
:1006B000F9CF615030F02091F100FC0120830196C8
:1006C000F8CF289884E680933A0108952FB7FC016B
:1006D0002083F89467706093E9000895CF93DF93C7
:1006E0001F92CDB7DEB7682FCE0101960E94660338
:1006F0008091F20099819FBF0F90DF91CF91089573
:10070000FF920F931F93CF93DF9300D0CDB7DEB747
:10071000F62E8A0190913901992311F057FF03C0F9
:100720008FEF9FEF2BC0682FCE0101967A830E9436
:1007300066038091F20090E0A8017A81801791070A
:100740000CF4AC01EF2DF72FF40E84E6FE1639F011
:10075000289880933A019091F1009193F7CF411539
:10076000510521F08091F200882321F089818FBF0B
:10077000CA0104C08BE68093E800F8CF0F900F9079
:10078000DF91CF911F910F91FF900895CF93DF9349
:100790001F92CDB7DEB741E050E0BE016F5F7F4FE3
:1007A0000E948003019719F4898190E002C08FEFC5
:1007B0009FEF0F90DF91CF910895CF93DF931F921A
:1007C000CDB7DEB7682FCE0101960E9466039091E7
:1007D000E800892F807295FF04C09091F20080E4B8
:1007E000891B99819FBF0F90DF91CF9108954F9200
:1007F0005F926F927F928F929F92AF92BF92CF92B1
:10080000DF92EF92FF920F931F93CF93DF931F928C
:10081000CDB7DEB7582E7B01A42E952E80913901DD
:10082000882369F0042F152F8AEFB82E852D80724A
:10083000782E9AE3892E852D8074682E11C08FEF53
:100840009FEF53C0852D0E94DD03482E81110CC0FF
:10085000BA94A9F361E070E080E090E00E94240285
:100860000115110579F737C0282F30E0021713075B
:100870000CF4402EC42CD12C0C191D09652DCE0171
:1008800001960E946603772039F04A948FEF48164C
:10089000B1F01092F100F9CFF701842D57FE07C097
:1008A000815058F094919093F1003196F9CF815096
:1008B00020F091919093F100FACFEC0CFD1C809107
:1008C000E80085FF0FC00115110511F461100AC081
:1008D00089818FBFC5CF5D9884E680933B018A2DC7
:1008E000992D03C08092E800F3CF0F90DF91CF9154
:1008F0001F910F91FF90EF90DF90CF90BF90AF903E
:100900009F908F907F906F905F904F90089510927E
:10091000E9001092380110923701909336018093CC
:1009200035010895CF93DF93FB0120E030E0DEEF47
:1009300024173507A1F187FF02C0C49101C0C0810F
:10094000A0913701B0913801609135017091360165
:10095000A617B707B4F49091E8009570E1F3909171
:10096000E80092FD1EC0C093F100609137017091C4
:1009700038016F5F7F4F6F737727672B11F4D09328
:10098000E80060913701709138016F5F7F4F70937D
:100990003801609337012F5F3F4F3196C9CFC901AE
:1009A00002C08FEF9FEFDF91CF9108951F93CF93F8
:1009B000DF931F92CDB7DEB7162F2091E80022FFFC
:1009C000FCCF612F79830E9459038BEF8093E8005D
:1009D000812F7981972F0F90DF91CF911F910895EB
:1009E000CF93DF931F92CDB7DEB71982CE01019668
:1009F0000E948908CE0101960E94CF06898190E06D
:100A00000F90DF91CF9108951F920F920FB60F9222
:100A10001124EF92FF920F931F932F933F934F93C5
:100A20005F936F937F938F939F93AF93BF93EF9356
:100A3000FF93CF93DF93CDB7DEB76297DEBFCDBF15
:100A40001092E9008091E80083FFE7C068E0CE01E2
:100A50000A960E94590382EF8093E8009A8597FFD7
:100A600005C08091E80080FFFCCF03C08EEF80932B
:100A7000E800892F807609F0B5C08B85811105C00B
:100A80001092F1001092F100C1C0282F2D7F21306B
:100A900009F4BCC0853049F48091E80080FFFCCFA8
:100AA0008C8580688093E300B1C0863009F072C005
:100AB0002D85E888F988223071F580E090E02A8B56
:100AC0000E9487040E94F00499E08E010F5F1F4F7F
:100AD000F801392F11923A95E9F799832A892A83E7
:100AE00091E09E8390E898879AEF9987209137014B
:100AF00030913801275F3F4F3C832B838D83C701A3
:100B00000E94870449E050E0B80180E00E9492040E
:100B10000E94F0047BC0C7012A8B0E9487042A89A7
:100B2000223241F482E290E00E94DA06892B09F039
:100B30006DC070C0213069F488899989089711F4D3
:100B40002093340180913401882389F063E471E0BB
:100B500016C0233009F05EC08C85882359F082309E
:100B600061F0813009F056C067E671E008C065E5C4
:100B700071E005C061EA71E002C06FE771E06115E4
:100B8000710509F447C0FB01449150E080E80E94E0
:100B900092043CC0873009F43DC0883021F481E0E4
:100BA0008093F10033C0893089F5937099F5EFE3B4
:100BB000F1E081E021E096E38093E9002093EB00EF
:100BC00034913093EC009093ED008F5F3196853037
:100BD00099F78EE78093EA001092EA008C85809363
:100BE000390114C0888999890E9487048E858111F2
:100BF00005C0CE010A960E94940806C0823051F4C6
:100C0000CE010A960E940207882321F08EEF80937E
:100C1000E80003C081E28093EB0062960FB6F8947F
:100C2000DEBF0FBECDBFDF91CF91FF91EF91BF919E
:100C3000AF919F918F917F916F915F914F913F9174
:100C40002F911F910F91FF90EF900F900FBE0F907B
:100C50001F9018958093E9008091F200882319F085
:100C60008AE38093E80008951092390181E080932F
:100C7000D70080EA8093D80082E189BD09B400FEE4
:100C8000FDCF61E070E080E090E00E94240280E906
:100C90008093D8008CE08093E2001092E000559A97
:100CA000209A08951F920F920FB60F9211242F933E
:100CB0003F934F935F936F937F938F939F93AF93E4
:100CC000BF93EF93FF938091E1001092E10083FFC7
:100CD0000FC01092E90091E09093EB001092EC00AD
:100CE00092E39093ED001092390198E09093F00018
:100CF00082FF26C083E00E942A0682E00E946E03E3
:100D0000882321F089E491E00E943B0880913B0117
:100D1000882339F080913B01815080933B018823E7
:100D200069F080913A01882359F080913A0181500D
:100D300080933A01811104C0289A02C05D9AF1CFD4
:100D4000FF91EF91BF91AF919F918F917F916F91A3
:100D50005F914F913F912F910F900FBE0F901F9079
:100D60001895FF920F931F93CF93DF93EC01F62E0C
:100D7000E881F9810480F581E02D09958C01E881F5
:100D8000F9810680F781E02D6F2DCE010995C8010C
:100D90009927DF91CF911F910F91FF900895FC014A
:100DA00020812F5F208349E150E065E272E080E816
:100DB0000C94920445E650E06EE372E080E80C94F7
:100DC0009204EF92FF920F931F93CF93DF931F92A2
:100DD000CDB7DEB789838B017A0141E050E0BE01D7
:100DE0006F5F7F4F84E00E94F703A701B80184E49E
:100DF0000E94F7030F90DF91CF911F910F91FF9009
:100E0000EF900895FC0191818081813A31F481E075
:100E1000913091F0933089F411C0813271F49B309C
:100E200021F482818093010105C09A3031F48281DE
:100E30008093000181E00895089580E0089548E0DE
:100E400050E082E00C94E106CF93DF93DC01683838
:100E500018F0E8E7E60F25C0E62FF0E067FF11C0C5
:100E6000E058F10981E090E001C0880FEA95EAF7C7
:100E700014969C911497982B14969C931497E0E0E9
:100E800010C0EB55FE4FE491EE2309F440C0E7FF9C
:100E900008C014968C911497826014968C931497C2
:100EA000EF7716968C9116978E1741F117968C91C5
:100EB00017978E1719F118968C9118978E17F1F0D5
:100EC00019968C9119978E17C9F01A968C911A97CA
:100ED0008E17A1F01B968C911B978E1779F080E0EE
:100EE00090E0ED01C80FD91F2E81211102C0EE83C1
:100EF00005C0019686309105A1F709C0BD016C5F60
:100F00007F4FCD010E941F0781E090E008C081E083
:100F100090E013969C938E93129780E090E0DF917F
:100F2000CF910895683818F0E8E7E60F25C0E62F5E
:100F3000F0E067FF12C0E058F10921E030E001C0A5
:100F4000220FEA95EAF72095DC0114963C9114975C
:100F5000322314963C93E0E00FC0EB55FE4FE49132
:100F6000EE2329F1E7FF08C0DC0114962C911497B9
:100F70002D7F14962C93EF7720E030E0EE2351F094
:100F8000DC01A20FB31F16964C9116974E1302C0A8
:100F900016961C922F5F3F4F2630310579F7BC0122
:100FA0006C5F7F4F0E941F0781E090E0089580E012
:100FB00090E00895FC011682178210861186128631
:100FC00013861482BC016C5F7F4F0C941F07109234
:100FD000480110923F0110923E018EE091E0909303
:100FE0003D0180933C010895809197019091980173
:100FF0002091990130919A01821B930B8F7399274D
:1010000008952091970130919801809199019091D4
:101010009A012817390749F0E0919901F0919A0156
:10102000E95AFE4F808190E008958FEF9FEF089579
:1010300020919701309198018091990190919A01A6
:1010400028173907A9F0E0919901F0919A01E95A1E
:10105000FE4F80812091990130919A012F5F3F4F7F
:101060002F73332730939A012093990190E00895CC
:101070008FEF9FEF0895CF93DF93C0919701D091A9
:1010800098012196CF73DD278091990190919A0163
:10109000C817D90799F082E00E94C6038F3F2FEF4F
:1010A000920761F0E0919701F0919801E95AFE4FA3
:1010B0008083D0939801C0939701DFCFDF91CF91C8
:1010C000089583E00C942A060F931F93CF93DF9328
:1010D0001F92CDB7DEB78C01698380910901882307
:1010E00059F041E050E0BE016F5F7F4F83E00E9406
:1010F000F703181619063CF081E090E0F80193839D
:10110000828380E090E00F90DF91CF911F910F914B
:101110000895FC0120812E5F208342E450E063EAC1
:1011200072E080E80C949204FC0181819081913AF4
:1011300059F4813209F04BC047E050E062E071E0C1
:1011400080E00E94920445C0913209F040C0803294
:1011500039F467E070E082E091E00E94D60439C083
:10116000823209F034C082818093090180910201AA
:1011700090910301A0910401B0910501803B94403E
:10118000A105B10531F58091090180FD12C087E705
:1011900097E790930108809300082BE088E190E0A6
:1011A0000FB6F894A895809360000FBE209360005E
:1011B00010C088E10FB6F894809360001092600030
:1011C0000FBEA895109201081092000802C080E09E
:1011D000089581E0089510924C0110924B0188EE21
:1011E00093E0A0E0B0E080934D0190934E01A09376
:1011F0004F01B09350018CE191E090934A018093AC
:1012000049010895CF92DF92EF92FF920F931F93BF
:10121000CF93DF936C017A01EB01E60EF71E00E03D
:1012200010E0CE15DF0561F06991D601ED91FC91DA
:101230000190F081E02DC6010995080F191FF1CF2B
:10124000C801DF91CF911F910F91FF90EF90DF9038
:10125000CF900895F8940C943309EE0FFF1F05907A
:0A126000F491E02D0994F894FFCFFB
:10126A00010100E100000000000000000000B106DA
:10127A00020924079207DA0700000000640802093D
:0A128A00F4071808010861083B088A
:00000001FF
